{
  "contractName": "CourseMarketplace",
  "abi": [
    {
      "inputs": [],
      "stateMutability": "nonpayable",
      "type": "constructor"
    },
    {
      "inputs": [],
      "name": "CourseHasOwner",
      "type": "error"
    },
    {
      "inputs": [],
      "name": "CourseIsNotCreated",
      "type": "error"
    },
    {
      "inputs": [],
      "name": "InvalidState",
      "type": "error"
    },
    {
      "inputs": [],
      "name": "OnlyOwner",
      "type": "error"
    },
    {
      "inputs": [],
      "name": "SenderIsNotCourseOwner",
      "type": "error"
    },
    {
      "inputs": [],
      "name": "isStopped",
      "outputs": [
        {
          "internalType": "bool",
          "name": "",
          "type": "bool"
        }
      ],
      "stateMutability": "view",
      "type": "function"
    },
    {
      "stateMutability": "payable",
      "type": "receive"
    },
    {
      "inputs": [
        {
          "internalType": "uint256",
          "name": "amount",
          "type": "uint256"
        }
      ],
      "name": "withdraw",
      "outputs": [],
      "stateMutability": "nonpayable",
      "type": "function"
    },
    {
      "inputs": [],
      "name": "emergencyWithdraw",
      "outputs": [],
      "stateMutability": "nonpayable",
      "type": "function"
    },
    {
      "inputs": [],
      "name": "stopContract",
      "outputs": [],
      "stateMutability": "nonpayable",
      "type": "function"
    },
    {
      "inputs": [],
      "name": "resumeContract",
      "outputs": [],
      "stateMutability": "nonpayable",
      "type": "function"
    },
    {
      "inputs": [
        {
          "internalType": "bytes16",
          "name": "courseId",
          "type": "bytes16"
        },
        {
          "internalType": "bytes32",
          "name": "proof",
          "type": "bytes32"
        }
      ],
      "name": "purchaseCourse",
      "outputs": [],
      "stateMutability": "payable",
      "type": "function"
    },
    {
      "inputs": [
        {
          "internalType": "bytes32",
          "name": "courseHash",
          "type": "bytes32"
        }
      ],
      "name": "activateCourse",
      "outputs": [],
      "stateMutability": "nonpayable",
      "type": "function"
    },
    {
      "inputs": [
        {
          "internalType": "bytes32",
          "name": "courseHash",
          "type": "bytes32"
        }
      ],
      "name": "deactivateCourse",
      "outputs": [],
      "stateMutability": "nonpayable",
      "type": "function"
    },
    {
      "inputs": [
        {
          "internalType": "address",
          "name": "newOwner",
          "type": "address"
        }
      ],
      "name": "transferOwnership",
      "outputs": [],
      "stateMutability": "nonpayable",
      "type": "function"
    },
    {
      "inputs": [],
      "name": "getCourseCount",
      "outputs": [
        {
          "internalType": "uint256",
          "name": "",
          "type": "uint256"
        }
      ],
      "stateMutability": "view",
      "type": "function"
    },
    {
      "inputs": [
        {
          "internalType": "uint256",
          "name": "index",
          "type": "uint256"
        }
      ],
      "name": "getCourseHashAtIndex",
      "outputs": [
        {
          "internalType": "bytes32",
          "name": "",
          "type": "bytes32"
        }
      ],
      "stateMutability": "view",
      "type": "function"
    },
    {
      "inputs": [
        {
          "internalType": "bytes32",
          "name": "courseHash",
          "type": "bytes32"
        }
      ],
      "name": "getCourseByHash",
      "outputs": [
        {
          "components": [
            {
              "internalType": "uint256",
              "name": "id",
              "type": "uint256"
            },
            {
              "internalType": "uint256",
              "name": "price",
              "type": "uint256"
            },
            {
              "internalType": "bytes32",
              "name": "proof",
              "type": "bytes32"
            },
            {
              "internalType": "address",
              "name": "owner",
              "type": "address"
            },
            {
              "internalType": "enum CourseMarketplace.State",
              "name": "state",
              "type": "uint8"
            }
          ],
          "internalType": "struct CourseMarketplace.Course",
          "name": "",
          "type": "tuple"
        }
      ],
      "stateMutability": "view",
      "type": "function"
    },
    {
      "inputs": [],
      "name": "getContractOwner",
      "outputs": [
        {
          "internalType": "address",
          "name": "",
          "type": "address"
        }
      ],
      "stateMutability": "view",
      "type": "function"
    }
  ],
  "bytecode": "0x608060405260008060006101000a81548160ff02191690831515021790555034801561002a57600080fd5b5061003a3361003f60201b60201c565b610083565b80600460006101000a81548173ffffffffffffffffffffffffffffffffffffffff021916908373ffffffffffffffffffffffffffffffffffffffff16021790555050565b6116f9806100926000396000f3fe6080604052600436106100c65760003560e01c80636d11290b1161007f578063c4bc5da511610059578063c4bc5da51461025f578063d76821cb14610276578063db2e21bc14610292578063f2fde38b146102a9576100cd565b80636d11290b146101ce578063935d7e6d1461020b57806396cfda0614610234576100cd565b806312253a6c146100d25780632e1a7d4d146100e957806339262572146101125780633f683b6a1461013b578063442890d51461016657806362e4e6ac14610191576100cd565b366100cd57005b600080fd5b3480156100de57600080fd5b506100e76102d2565b005b3480156100f557600080fd5b50610110600480360381019061010b91906111b5565b61035a565b005b34801561011e57600080fd5b506101396004803603810190610134919061118c565b610498565b005b34801561014757600080fd5b50610150610684565b60405161015d91906113b1565b60405180910390f35b34801561017257600080fd5b5061017b610695565b6040516101889190611396565b60405180910390f35b34801561019d57600080fd5b506101b860048036038101906101b3919061118c565b6106bf565b6040516101c59190611427565b60405180910390f35b3480156101da57600080fd5b506101f560048036038101906101f091906111b5565b6107e7565b60405161020291906113cc565b60405180910390f35b34801561021757600080fd5b50610232600480360381019061022d919061118c565b610804565b005b34801561024057600080fd5b50610249610acf565b6040516102569190611442565b60405180910390f35b34801561026b57600080fd5b50610274610ad9565b005b610290600480360381019061028b9190611150565b610b61565b005b34801561029e57600080fd5b506102a7610d66565b005b3480156102b557600080fd5b506102d060048036038101906102cb9190611127565b610eba565b005b6102da610695565b73ffffffffffffffffffffffffffffffffffffffff163373ffffffffffffffffffffffffffffffffffffffff161461033e576040517f5fc483c500000000000000000000000000000000000000000000000000000000815260040160405180910390fd5b60016000806101000a81548160ff021916908315150217905550565b610362610695565b73ffffffffffffffffffffffffffffffffffffffff163373ffffffffffffffffffffffffffffffffffffffff16146103c6576040517f5fc483c500000000000000000000000000000000000000000000000000000000815260040160405180910390fd5b6000600460009054906101000a900473ffffffffffffffffffffffffffffffffffffffff1673ffffffffffffffffffffffffffffffffffffffff168260405161040e90611381565b60006040518083038185875af1925050503d806000811461044b576040519150601f19603f3d011682016040523d82523d6000602084013e610450565b606091505b5050905080610494576040517f08c379a000000000000000000000000000000000000000000000000000000000815260040161048b90611407565b60405180910390fd5b5050565b60008054906101000a900460ff16156104b057600080fd5b6104b8610695565b73ffffffffffffffffffffffffffffffffffffffff163373ffffffffffffffffffffffffffffffffffffffff161461051c576040517f5fc483c500000000000000000000000000000000000000000000000000000000815260040160405180910390fd5b61052581610f32565b61055b576040517f4db0c48300000000000000000000000000000000000000000000000000000000815260040160405180910390fd5b6000600160008381526020019081526020016000209050600060028111156105ac577f4e487b7100000000000000000000000000000000000000000000000000000000600052602160045260246000fd5b8160030160149054906101000a900460ff1660028111156105f6577f4e487b7100000000000000000000000000000000000000000000000000000000600052602160045260246000fd5b1461062d576040517fbaf3f0f700000000000000000000000000000000000000000000000000000000815260040160405180910390fd5b60018160030160146101000a81548160ff0219169083600281111561067b577f4e487b7100000000000000000000000000000000000000000000000000000000600052602160045260246000fd5b02179055505050565b60008054906101000a900460ff1681565b6000600460009054906101000a900473ffffffffffffffffffffffffffffffffffffffff16905090565b6106c7611053565b600160008381526020019081526020016000206040518060a00160405290816000820154815260200160018201548152602001600282015481526020016003820160009054906101000a900473ffffffffffffffffffffffffffffffffffffffff1673ffffffffffffffffffffffffffffffffffffffff1673ffffffffffffffffffffffffffffffffffffffff1681526020016003820160149054906101000a900460ff1660028111156107a4577f4e487b7100000000000000000000000000000000000000000000000000000000600052602160045260246000fd5b60028111156107dc577f4e487b7100000000000000000000000000000000000000000000000000000000600052602160045260246000fd5b815250509050919050565b600060026000838152602001908152602001600020549050919050565b60008054906101000a900460ff161561081c57600080fd5b610824610695565b73ffffffffffffffffffffffffffffffffffffffff163373ffffffffffffffffffffffffffffffffffffffff1614610888576040517f5fc483c500000000000000000000000000000000000000000000000000000000815260040160405180910390fd5b61089181610f32565b6108c7576040517f4db0c48300000000000000000000000000000000000000000000000000000000815260040160405180910390fd5b600060016000838152602001908152602001600020905060006002811115610918577f4e487b7100000000000000000000000000000000000000000000000000000000600052602160045260246000fd5b8160030160149054906101000a900460ff166002811115610962577f4e487b7100000000000000000000000000000000000000000000000000000000600052602160045260246000fd5b14610999576040517fbaf3f0f700000000000000000000000000000000000000000000000000000000815260040160405180910390fd5b60008160030160009054906101000a900473ffffffffffffffffffffffffffffffffffffffff1673ffffffffffffffffffffffffffffffffffffffff1682600101546040516109e790611381565b60006040518083038185875af1925050503d8060008114610a24576040519150601f19603f3d011682016040523d82523d6000602084013e610a29565b606091505b5050905080610a6d576040517f08c379a0000000000000000000000000000000000000000000000000000000008152600401610a64906113e7565b60405180910390fd5b60028260030160146101000a81548160ff02191690836002811115610abb577f4e487b7100000000000000000000000000000000000000000000000000000000600052602160045260246000fd5b021790555060008260010181905550505050565b6000600354905090565b610ae1610695565b73ffffffffffffffffffffffffffffffffffffffff163373ffffffffffffffffffffffffffffffffffffffff1614610b45576040517f5fc483c500000000000000000000000000000000000000000000000000000000815260040160405180910390fd5b60008060006101000a81548160ff021916908315150217905550565b60008054906101000a900460ff1615610b7957600080fd5b60008233604051602001610b8e929190611355565b604051602081830303815290604052805190602001209050610baf81610fa1565b15610be6576040517fb0fc2d9700000000000000000000000000000000000000000000000000000000815260040160405180910390fd5b600060036000815480929190610bfb9061151c565b9190505590508160026000838152602001908152602001600020819055506040518060a001604052808281526020013481526020018481526020013373ffffffffffffffffffffffffffffffffffffffff16815260200160006002811115610c8c577f4e487b7100000000000000000000000000000000000000000000000000000000600052602160045260246000fd5b8152506001600084815260200190815260200160002060008201518160000155602082015181600101556040820151816002015560608201518160030160006101000a81548173ffffffffffffffffffffffffffffffffffffffff021916908373ffffffffffffffffffffffffffffffffffffffff16021790555060808201518160030160146101000a81548160ff02191690836002811115610d58577f4e487b7100000000000000000000000000000000000000000000000000000000600052602160045260246000fd5b021790555090505050505050565b60008054906101000a900460ff16610d7d57600080fd5b610d85610695565b73ffffffffffffffffffffffffffffffffffffffff163373ffffffffffffffffffffffffffffffffffffffff1614610de9576040517f5fc483c500000000000000000000000000000000000000000000000000000000815260040160405180910390fd5b6000600460009054906101000a900473ffffffffffffffffffffffffffffffffffffffff1673ffffffffffffffffffffffffffffffffffffffff1647604051610e3190611381565b60006040518083038185875af1925050503d8060008114610e6e576040519150601f19603f3d011682016040523d82523d6000602084013e610e73565b606091505b5050905080610eb7576040517f08c379a0000000000000000000000000000000000000000000000000000000008152600401610eae90611407565b60405180910390fd5b50565b610ec2610695565b73ffffffffffffffffffffffffffffffffffffffff163373ffffffffffffffffffffffffffffffffffffffff1614610f26576040517f5fc483c500000000000000000000000000000000000000000000000000000000815260040160405180910390fd5b610f2f8161100f565b50565b60008073ffffffffffffffffffffffffffffffffffffffff166001600084815260200190815260200160002060030160009054906101000a900473ffffffffffffffffffffffffffffffffffffffff1673ffffffffffffffffffffffffffffffffffffffff1614159050919050565b60003373ffffffffffffffffffffffffffffffffffffffff166001600084815260200190815260200160002060030160009054906101000a900473ffffffffffffffffffffffffffffffffffffffff1673ffffffffffffffffffffffffffffffffffffffff16149050919050565b80600460006101000a81548173ffffffffffffffffffffffffffffffffffffffff021916908373ffffffffffffffffffffffffffffffffffffffff16021790555050565b6040518060a00160405280600081526020016000815260200160008019168152602001600073ffffffffffffffffffffffffffffffffffffffff168152602001600060028111156110cd577f4e487b7100000000000000000000000000000000000000000000000000000000600052602160045260246000fd5b81525090565b6000813590506110e281611667565b92915050565b6000813590506110f78161167e565b92915050565b60008135905061110c81611695565b92915050565b600081359050611121816116ac565b92915050565b60006020828403121561113957600080fd5b6000611147848285016110d3565b91505092915050565b6000806040838503121561116357600080fd5b6000611171858286016110e8565b9250506020611182858286016110fd565b9150509250929050565b60006020828403121561119e57600080fd5b60006111ac848285016110fd565b91505092915050565b6000602082840312156111c757600080fd5b60006111d584828501611112565b91505092915050565b6111e781611479565b82525050565b6111f681611479565b82525050565b61120d61120882611479565b611565565b82525050565b61121c8161148b565b82525050565b61123361122e82611497565b611577565b82525050565b611242816114c3565b82525050565b611251816114c3565b82525050565b6112608161150a565b82525050565b6000611273600f83611468565b915061127e826115fe565b602082019050919050565b600061129660008361145d565b91506112a182611627565b600082019050919050565b60006112b9601083611468565b91506112c48261162a565b602082019050919050565b60a0820160008201516112e56000850182611337565b5060208201516112f86020850182611337565b50604082015161130b6040850182611239565b50606082015161131e60608501826111de565b5060808201516113316080850182611257565b50505050565b61134081611500565b82525050565b61134f81611500565b82525050565b60006113618285611222565b60108201915061137182846111fc565b6014820191508190509392505050565b600061138c82611289565b9150819050919050565b60006020820190506113ab60008301846111ed565b92915050565b60006020820190506113c66000830184611213565b92915050565b60006020820190506113e16000830184611248565b92915050565b6000602082019050818103600083015261140081611266565b9050919050565b60006020820190508181036000830152611420816112ac565b9050919050565b600060a08201905061143c60008301846112cf565b92915050565b60006020820190506114576000830184611346565b92915050565b600081905092915050565b600082825260208201905092915050565b6000611484826114e0565b9050919050565b60008115159050919050565b60007fffffffffffffffffffffffffffffffff0000000000000000000000000000000082169050919050565b6000819050919050565b60008190506114db82611653565b919050565b600073ffffffffffffffffffffffffffffffffffffffff82169050919050565b6000819050919050565b6000611515826114cd565b9050919050565b600061152782611500565b91507fffffffffffffffffffffffffffffffffffffffffffffffffffffffffffffffff82141561155a57611559611593565b5b600182019050919050565b600061157082611581565b9050919050565b6000819050919050565b600061158c826115f1565b9050919050565b7f4e487b7100000000000000000000000000000000000000000000000000000000600052601160045260246000fd5b7f4e487b7100000000000000000000000000000000000000000000000000000000600052602160045260246000fd5b60008160601b9050919050565b7f5472616e73666572206661696c65640000000000000000000000000000000000600082015250565b50565b7f5472616e73666572206661696c65642e00000000000000000000000000000000600082015250565b60038110611664576116636115c2565b5b50565b61167081611479565b811461167b57600080fd5b50565b61168781611497565b811461169257600080fd5b50565b61169e816114c3565b81146116a957600080fd5b50565b6116b581611500565b81146116c057600080fd5b5056fea2646970667358221220504fe97cd7b29a08978c348a41de3132f87c6164f6865229ae2df3cf82bb897664736f6c63430008040033",
  "immutableReferences": {},
  "source": "// SPDX-License-Identifier: MIT\r\n\r\npragma solidity >=0.4.22 <0.9.0;\r\n\r\n\r\n/**\r\n  CONTRACT\r\n */\r\ncontract CourseMarketplace {\r\n\r\n\r\n  enum State {\r\n    Purchased,\r\n    Activated,\r\n    Deactivated\r\n  }\r\n\r\n  struct Course {\r\n    uint id; // 32\r\n    uint price; // 32\r\n    bytes32 proof; // 32\r\n    address owner; // 20\r\n    State state; // 1\r\n  }\r\n\r\n\r\n  /**\r\n    INNITIALIZATIONS OF STATE VARIABLES\r\n   */\r\n\r\n  /**\r\n    in the eventualities of hacks, pause execution of contract so that only owner/admin can hve access\r\n  */\r\n  bool public isStopped = false;\r\n\r\n  // mapping of courseHash to course data\r\n  mapping(bytes32 => Course) private ownedCourses;\r\n\r\n  // mapping of courseId to courseHash\r\n  mapping(uint => bytes32) private ownedCoursHash;\r\n  \r\n  // number of all courses + id of the course\r\n  uint private totalOwnedCourses;\r\n\r\n  // administartor of the contract\r\n  address payable private owner;\r\n\r\n  constructor() {\r\n    setContractOwner(msg.sender);\r\n  }\r\n\r\n\r\n\r\n  /**\r\n    ERRORS!!!!\r\n  */\r\n  ///Course has invalid state\r\n  error InvalidState();\r\n\r\n  ///Course has not been created\r\n  error CourseIsNotCreated();\r\n\r\n  /// Errors- Course already has a owner\r\n  error CourseHasOwner();\r\n\r\n  /// Errors- sender Is Not a Course Owner\r\n  error SenderIsNotCourseOwner();\r\n\r\n  /// Only owner can transfer\r\n  error OnlyOwner();\r\n\r\n\r\n\r\n  /**\r\n    MODIFIERS\r\n  */\r\n  // only owner should be able to transfer ownership\r\n  modifier onlyOwner() {\r\n    if(msg.sender != getContractOwner()) {\r\n      revert OnlyOwner();\r\n    }\r\n    _;\r\n  }\r\n\r\n  // Allow execution  of function only when  isStopped = false\r\n  modifier onlyWhenNotStopped() {\r\n    require(!isStopped);\r\n    _;\r\n  }\r\n\r\n  // Block execution  of function only when  isStopped = true\r\n  modifier onlyWhenStopped() {\r\n    require(isStopped);\r\n    _;\r\n  }\r\n\r\n\r\n\r\n\r\n\r\n  /**\r\n    CONTRACT UTILITY FUNCTIONS\r\n  */\r\n  // allow contract to make transactions\r\n  receive() external payable{}\r\n\r\n\r\n  // option to withdraw ether\r\n   function withdraw(uint amount)\r\n    external\r\n    onlyOwner\r\n  {\r\n    (bool success, ) = owner.call{value: amount}(\"\");\r\n    require(success, \"Transfer failed.\");\r\n  }\r\n\r\n  // emergency withdrawal- withdraw whole bal at once\r\n  function emergencyWithdraw()\r\n    external\r\n    onlyWhenStopped\r\n    onlyOwner\r\n  {\r\n    (bool success, ) = owner.call{value: address(this).balance}(\"\");\r\n    require(success, \"Transfer failed.\");\r\n  }\r\n\r\n\r\n  // Destroy the Msart contract\r\n  // function selfDestruct() external onlyWhenStopped onlyOwner {\r\n\r\n  //   selfdestruct(owner);\r\n  // }\r\n\r\n\r\n  // Funtion to stop contract Execution\r\n  function stopContract() external onlyOwner {\r\n    isStopped = true;\r\n  }\r\n\r\n  // Funtion to resume contract Execution\r\n  function resumeContract() external onlyOwner {\r\n    isStopped = false;\r\n  }\r\n\r\n\r\n\r\n\r\n /**\r\n  CONTRACT FUNCTIONS\r\n  */\r\n\r\n  //  Purchase State\r\n  function purchaseCourse (bytes16 courseId, bytes32 proof ) external payable onlyWhenNotStopped {  \r\n    //0x00000000000000000000000007835667\r\n    //0x0000000000000000000000000000000000000000000000000078356677835667\r\n    \r\n\r\n    // contructs a course hash by joining both course id and address of sender\r\n    bytes32 courseHash = keccak256(abi.encodePacked(courseId, msg.sender));\r\n\r\n    \r\n    if(hasCourseOwnership(courseHash)) {\r\n      revert CourseHasOwner();\r\n    }\r\n\r\n    uint id = totalOwnedCourses++;\r\n\r\n    ownedCoursHash[id] = courseHash;\r\n    \r\n    ownedCourses[courseHash] = Course({\r\n      id: id,\r\n      price: msg.value,\r\n      proof: proof,\r\n      owner: msg.sender,\r\n      state: State.Purchased\r\n    });\r\n  \r\n  }\r\n\r\n\r\n  //  repurchase functionality\r\n  // function repurchaseCourse(bytes32 courseHash) external payable onlyWhenNotStopped {\r\n\r\n  //   if(!isCourseCreated(courseHash)) {\r\n\r\n  //     revert CourseIsNotCreated();\r\n  //   }\r\n\r\n  //   if (!hasCourseOwnership(courseHash)) {\r\n  //     revert SenderIsNotCourseOwner();\r\n  //   }\r\n\r\n  //   // get course from Course storage\r\n  //   Course storage course = ownedCourses[courseHash];\r\n\r\n  //   if (course.state != State.Deactivated) {\r\n  //     revert InvalidState();\r\n  //   }\r\n\r\n  //   course.state = State.Purchased;\r\n  //   course.price = msg.value;\r\n  // }\r\n\r\n\r\n  // Admin access to activate course\r\n  function activateCourse(bytes32 courseHash) external onlyWhenNotStopped onlyOwner {\r\n\r\n    if(!isCourseCreated(courseHash)) {\r\n      \r\n      revert CourseIsNotCreated();\r\n    }\r\n\r\n    Course storage course = ownedCourses[courseHash];\r\n\r\n    if (course.state != State.Purchased) {\r\n      \r\n      revert InvalidState();\r\n    }\r\n\r\n\r\n    course.state = State.Activated;\r\n  }\r\n\r\n\r\n\r\n  // Admin access to deactivate course\r\n  function deactivateCourse(bytes32 courseHash) external onlyWhenNotStopped onlyOwner {\r\n\r\n    if(!isCourseCreated(courseHash)) {\r\n\r\n      revert CourseIsNotCreated();\r\n    }\r\n\r\n    Course storage course = ownedCourses[courseHash];\r\n\r\n    if (course.state != State.Purchased) {\r\n      \r\n      revert InvalidState();\r\n    }\r\n\r\n    // we return the buyers money if we deactivate his purchased course\r\n    (bool success, ) = course.owner.call{value: course.price}(\"\");\r\n    require(success, \"Transfer failed\");\r\n\r\n\r\n    course.state = State.Deactivated;\r\n    course.price = 0;\r\n  }\r\n\r\n\r\n  // Transfer ownership from owner to buyer\r\n  function transferOwnership(address newOwner) external onlyOwner{\r\n    setContractOwner(newOwner);\r\n  }\r\n\r\n  // get number of purchased courses\r\n  function getCourseCount() external view returns(uint) {\r\n\r\n    return totalOwnedCourses;\r\n  }\r\n\r\n  // get the course hash at specific index\r\n  function getCourseHashAtIndex(uint index) external view returns (bytes32) {\r\n\r\n    return ownedCoursHash[index];\r\n  }\r\n\r\n  // get course index, details by the hash\r\n  function getCourseByHash(bytes32 courseHash) external view returns(Course memory) {\r\n\r\n    return ownedCourses[courseHash];\r\n  }\r\n  \r\n\r\n  // Retrieve contract owner\r\n  function getContractOwner() public view returns(address) {\r\n    return owner;\r\n  }\r\n\r\n  function setContractOwner(address newOwner) private {\r\n\r\n    owner = payable(newOwner);\r\n  }\r\n\r\n  // chcek if course exist\r\n  function isCourseCreated(bytes32 courseHash) private view returns(bool){\r\n\r\n    return ownedCourses[courseHash].owner != 0x0000000000000000000000000000000000000000;\r\n  }\r\n\r\n  // checking for pre existing course hash inorder not to create same courseHash twice\r\n  function hasCourseOwnership(bytes32 courseHash) private view returns(bool){\r\n\r\n    return ownedCourses[courseHash].owner == msg.sender;\r\n  }\r\n}\r\n\r\n\r\n\r\n\r\n\r\n\r\n\r\n\r\n\r\n\r\n\r\n\r\n\r\n\r\n\r\n\r\n\r\n// pragma solidity >=0.4.22 <0.9.0;\r\n\r\n// contract CourseMarketplace {\r\n\r\n//   enum State {\r\n//     Purchased,\r\n//     Activated,\r\n//     Deactivated\r\n//   }\r\n\r\n//   struct Course {\r\n//     uint256 id; // 32\r\n//     uint256 price; // 32\r\n//     bytes32 proof; // 32\r\n//     address owner; // 20\r\n//     State state; // 1\r\n//   }\r\n\r\n//   // mapping of courseHash to Course data\r\n//   mapping(bytes32 => Course) private ownedCourses;\r\n\r\n//   // mapping of courseID to courseHash\r\n//   mapping(uint256 => bytes32) private ownedCourseHash;\r\n\r\n//   // number of all courses + id of the course\r\n//   uint256 private totalOwnedCourses;\r\n\r\n//   address payable private owner;\r\n\r\n//   constructor() {\r\n//     setContractOwner(msg.sender);\r\n//   }\r\n\r\n//   /// Course has already a Owner!\r\n//   error CourseHasOwner();\r\n\r\n//   /// Only owner has an access!\r\n//   error OnlyOwner();\r\n\r\n//   modifier onlyOwner() {\r\n//     if (msg.sender != getContractOwner()) {\r\n//       revert OnlyOwner();\r\n//     }\r\n//     _;\r\n//   }\r\n\r\n//   function purchaseCourse(bytes16 hexCourseId, bytes32 proof) external payable {\r\n\r\n//     bytes32 courseHash = keccak256(abi.encodePacked(hexCourseId, msg.sender));\r\n\r\n//     if (hasCourseOwnership(courseHash)) {\r\n//       revert CourseHasOwner();\r\n//     }\r\n\r\n//     uint256 id = totalOwnedCourses++;\r\n\r\n//     ownedCourseHash[id] = courseHash;\r\n    \r\n//     ownedCourses[courseHash] = Course({\r\n//       id: id,\r\n//       price: msg.value,\r\n//       proof: proof,\r\n//       owner: msg.sender,\r\n//       state: State.Purchased\r\n//     });                             \r\n\r\n//     // uint id = totalOwnedCourses++;\r\n\r\n//     // ownedCoursHash[id] = courseHash;\r\n//     // ownedCourses[courseHash] = Course({\r\n//     //   id: id,\r\n//     //   price: msg.value,\r\n//     //   proof: proof,\r\n//     //   owner: msg.sender,\r\n//     //   state: State.Purchased\r\n//     // });\r\n//   }\r\n\r\n//   function transferOwnership(address newOwner)\r\n//     external\r\n//     onlyOwner\r\n//   {\r\n//     setContractOwner(newOwner);\r\n//   }\r\n\r\n//   function getCourseCount()\r\n//     external\r\n//     view\r\n//     returns (uint256)\r\n//   {\r\n//     return totalOwnedCourses;\r\n//   }\r\n\r\n//   function getCourseHashAtIndex(uint256 index)\r\n//     external\r\n//     view\r\n//     returns (bytes32)\r\n//   {\r\n//     return ownedCourseHash[index];\r\n//   }\r\n\r\n//   function getCourseByHash(bytes32 courseHash)\r\n//     external\r\n//     view\r\n//     returns (Course memory)\r\n//   {\r\n//     return ownedCourses[courseHash];\r\n//   }\r\n\r\n//   function getContractOwner()\r\n//     public\r\n//     view\r\n//     returns (address)\r\n//   {\r\n//     return owner;\r\n//   }\r\n\r\n//   function setContractOwner(address newOwner) private {\r\n//     owner = payable(newOwner);\r\n//   }\r\n\r\n//   function hasCourseOwnership(bytes32 courseHash)\r\n//     private\r\n//     view\r\n//     returns (bool)\r\n//   {\r\n//     return ownedCourses[courseHash].owner == msg.sender;\r\n//   }\r\n// }\r\n\r\n\r\n\r\n\r\n\r\n\r\n\r\n\r\n\r\n\r\n\r\n\r\n\r\n\r\n\r\n\r\n\r\n// pragma solidity >=0.4.22 <0.9.0;\r\n\r\n// contract CourseMarketplace {\r\n\r\n//   enum State {\r\n//     Purchased,\r\n//     Activated,\r\n//     Deactivated\r\n//   }\r\n\r\n//   struct Course {\r\n//     uint id; // 32\r\n//     uint price; // 32\r\n//     bytes32 proof; // 32\r\n//     address owner; // 20\r\n//     State state; // 1\r\n//   }\r\n\r\n//   bool public isStopped = false;\r\n\r\n//   // mapping of courseHash to Course data\r\n//   mapping(bytes32 => Course) private ownedCourses;\r\n\r\n//   // mapping of courseID to courseHash\r\n//   mapping(uint => bytes32) private ownedCourseHash;\r\n\r\n//   // number of all courses + id of the course\r\n//   uint private totalOwnedCourses;\r\n\r\n//   address payable private owner;\r\n\r\n//   constructor() {\r\n//     setContractOwner(msg.sender);\r\n//   }\r\n\r\n//   /// Course has invalid state!\r\n//   error InvalidState();\r\n\r\n//   /// Course is not created!\r\n//   error CourseIsNotCreated();\r\n\r\n//   /// Course has already a Owner!\r\n//   error CourseHasOwner();\r\n\r\n//   /// Sender is not course owner!\r\n//   error SenderIsNotCourseOwner();\r\n\r\n//   /// Only owner has an access!\r\n//   error OnlyOwner();\r\n\r\n//   modifier onlyOwner() {\r\n//     if (msg.sender != getContractOwner()) {\r\n//       revert OnlyOwner();\r\n//     }\r\n//     _;\r\n//   }\r\n\r\n//   modifier onlyWhenNotStopped {\r\n//     require(!isStopped);\r\n//     _;\r\n//   }\r\n\r\n//   modifier onlyWhenStopped {\r\n//     require(isStopped);\r\n//     _;\r\n//   }\r\n\r\n//   receive() external payable {}\r\n\r\n//   function withdraw(uint amount)\r\n//     external\r\n//     onlyOwner\r\n//   {\r\n//     (bool success, ) = owner.call{value: amount}(\"\");\r\n//     require(success, \"Transfer failed.\");\r\n//   }\r\n\r\n//   function emergencyWithdraw()\r\n//     external\r\n//     onlyWhenStopped\r\n//     onlyOwner\r\n//   {\r\n//     (bool success, ) = owner.call{value: address(this).balance}(\"\");\r\n//     require(success, \"Transfer failed.\");\r\n//   }\r\n\r\n//   function selfDestruct()\r\n//     external\r\n//     onlyWhenStopped\r\n//     onlyOwner\r\n//   {\r\n//     selfdestruct(owner);\r\n//   }\r\n\r\n//   function stopContract()\r\n//     external\r\n//     onlyOwner\r\n//   {\r\n//     isStopped = true;\r\n//   }\r\n\r\n//   function resumeContract()\r\n//     external\r\n//     onlyOwner\r\n//   {\r\n//     isStopped = false;\r\n//   }\r\n\r\n//   function purchaseCourse(\r\n//     bytes16 courseId, // 0x00000000000000000000000000003130\r\n//     bytes32 proof // 0x0000000000000000000000000000313000000000000000000000000000003130\r\n//   )\r\n//     external\r\n//     payable\r\n//     onlyWhenNotStopped\r\n//   {\r\n//     bytes32 courseHash = keccak256(abi.encodePacked(courseId, msg.sender));\r\n\r\n//     if (hasCourseOwnership(courseHash)) {\r\n//       revert CourseHasOwner();\r\n//     }\r\n\r\n//     uint id = totalOwnedCourses++;\r\n\r\n//     ownedCourseHash[id] = courseHash;\r\n//     ownedCourses[courseHash] = Course({\r\n//       id: id,\r\n//       price: msg.value,\r\n//       proof: proof,\r\n//       owner: msg.sender,\r\n//       state: State.Purchased\r\n//     });\r\n//   }\r\n\r\n//   function repurchaseCourse(bytes32 courseHash)\r\n//     external\r\n//     payable\r\n//     onlyWhenNotStopped\r\n//   {\r\n//     if (!isCourseCreated(courseHash)) {\r\n//       revert CourseIsNotCreated();\r\n//     }\r\n\r\n//     if (!hasCourseOwnership(courseHash)) {\r\n//       revert SenderIsNotCourseOwner();\r\n//     }\r\n\r\n//     Course storage course = ownedCourses[courseHash];\r\n\r\n//     if (course.state != State.Deactivated) {\r\n//       revert InvalidState();\r\n//     }\r\n\r\n//     course.state = State.Purchased;\r\n//     course.price = msg.value;\r\n//   }\r\n\r\n//   function activateCourse(bytes32 courseHash)\r\n//     external\r\n//     onlyWhenNotStopped\r\n//     onlyOwner\r\n//   {\r\n//     if (!isCourseCreated(courseHash)) {\r\n//       revert CourseIsNotCreated();\r\n//     }\r\n\r\n//     Course storage course = ownedCourses[courseHash];\r\n\r\n//     if (course.state != State.Purchased) {\r\n//       revert InvalidState();\r\n//     }\r\n\r\n//     course.state = State.Activated;\r\n//   }\r\n\r\n//   function deactivateCourse(bytes32 courseHash)\r\n//     external\r\n//     onlyWhenNotStopped\r\n//     onlyOwner\r\n//   {\r\n//     if (!isCourseCreated(courseHash)) {\r\n//       revert CourseIsNotCreated();\r\n//     }\r\n\r\n//     Course storage course = ownedCourses[courseHash];\r\n\r\n//     if (course.state != State.Purchased) {\r\n//       revert InvalidState();\r\n//     }\r\n\r\n//     (bool success, ) = course.owner.call{value: course.price}(\"\");\r\n//     require(success, \"Transfer failed!\");\r\n\r\n//     course.state = State.Deactivated;\r\n//     course.price = 0;\r\n//   }\r\n\r\n//   function transferOwnership(address newOwner)\r\n//     external\r\n//     onlyOwner\r\n//   {\r\n//     setContractOwner(newOwner);\r\n//   }\r\n\r\n//   function getCourseCount()\r\n//     external\r\n//     view\r\n//     returns (uint)\r\n//   {\r\n//     return totalOwnedCourses;\r\n//   }\r\n\r\n//   function getCourseHashAtIndex(uint index)\r\n//     external\r\n//     view\r\n//     returns (bytes32)\r\n//   {\r\n//     return ownedCourseHash[index];\r\n//   }\r\n\r\n//   function getCourseByHash(bytes32 courseHash)\r\n//     external\r\n//     view\r\n//     returns (Course memory)\r\n//   {\r\n//     return ownedCourses[courseHash];\r\n//   }\r\n\r\n//   function getContractOwner()\r\n//     public\r\n//     view\r\n//     returns (address)\r\n//   {\r\n//     return owner;\r\n//   }\r\n\r\n//   function setContractOwner(address newOwner) private {\r\n//     owner = payable(newOwner);\r\n//   }\r\n\r\n//   function isCourseCreated(bytes32 courseHash)\r\n//     private\r\n//     view\r\n//     returns (bool)\r\n//   {\r\n//     return ownedCourses[courseHash].owner != 0x0000000000000000000000000000000000000000;\r\n//   }\r\n\r\n//   function hasCourseOwnership(bytes32 courseHash)\r\n//     private\r\n//     view\r\n//     returns (bool)\r\n//   {\r\n//     return ownedCourses[courseHash].owner == msg.sender;\r\n//   }\r\n// }",
  "sourcePath": "C:\\Users\\Daoist\\Documents\\Work_Station\\labs\\blockchain\\marketplace-eth\\contracts\\CourseMarketplace.sol",
  "compiler": {
    "name": "solc",
    "version": "0.8.4+commit.c7e474f2.Emscripten.clang"
  },
  "schemaVersion": "3.4.14",
  "updatedAt": "2023-07-30T18:49:05.630Z",
  "devdoc": {
    "kind": "dev",
    "methods": {},
    "version": 1
  },
  "userdoc": {
    "errors": {
      "CourseHasOwner()": [
        {
          "notice": "Errors- Course already has a owner"
        }
      ],
      "CourseIsNotCreated()": [
        {
          "notice": "Course has not been created"
        }
      ],
      "InvalidState()": [
        {
          "notice": "Course has invalid state"
        }
      ],
      "OnlyOwner()": [
        {
          "notice": "Only owner can transfer"
        }
      ],
      "SenderIsNotCourseOwner()": [
        {
          "notice": "Errors- sender Is Not a Course Owner"
        }
      ]
    },
    "kind": "user",
    "methods": {
      "isStopped()": {
        "notice": "in the eventualities of hacks, pause execution of contract so that only owner/admin can hve access"
      },
      "purchaseCourse(bytes16,bytes32)": {
        "notice": "CONTRACT FUNCTIONS"
      }
    },
    "notice": "CONTRACT",
    "version": 1
  }
}